:20000000483F0020CD9A000001CA011001CA011001CA011001CA011001CA011001CA0110AA
:1C00200001CA011001CA011001CA011001CA011001CA011001CA01103FCA011082
:20003C001FB58DF80C002448016824480088E0B123480068014218D022480068014204D1FD
:20005C0021480068008801420FD0224840F2D543046800930CA201929DF80C001C4B02907B
:20007C001A881A4B186804A3A047032003A9012209F062FD00901FBD70726F6A6563745F43
:20009C007A65726F2E6300C02843422920474150205374617465206368616E67653A20253F
:2000BC00642C2053656E64696E67206D736720746F206170702E00C0B4D90000F8D9000095
:2000DC00400500003C05000044050000D0D9000084050000C8D90000014908607047C046F3
:0400FC00B02600200A
:200100003C000000000000000000000034010000000000000000000001000000000000006D
:1C01200000000000000000000000000001000000000000000800000000000000BA
:20013C00340000000000000000000000680100000000000000000000010000000000000005
:14015C00010000000000000000000000080000000000000086
:2001700030000000000000000000000098010000040000000000000001000000FFFFFFFFA5
:10019000FF00000001000000080000000000000057
:2001A0002C0000000000000000000000C4010000040000000000000001000000FFFFFFFF4D
:0C01C000FFFFFFFF08000000000000002F
:2001CC0034050000E401000099A1011095A70110A5C2011009B2011045B80110000000000B
:0801EC00000000002E000000DD
:2001F400280000000000000000000000140200000000000000000000FFFFFFFF00000000B1
:080214000800000000000000DA
:20021C00300500003002000069C201106DC101101FC2011095BA011000000000000000008E
:04023C002C00000092
:20024000300500005402000075C20110A9B601109DBF011049B601100000000000000000DE
:040260002D0000006D
:200264002400000000000000000000008002000000000000000000000000000008000000CC
:040284000000000076
:20028800240000000000000000000000A40200000000000000000000000000000800000084
:0402A8000000000052
:2002AC00240000000000000000000000C8020000000000000100000000000000080000003B
:0402CC00000000002E
:2002D000000000005C170020040000000000000000000000200000007001000030000000B6
:2002F0001C020000641700200400000000000000000000000C0000003004000018000000D9
:20031000400200006C1700200400000000000000000000002400000048040000180000005C
:20033000000000007417002004000000000000000000000010000000A00100002C00000021
:20035000CC0100007C1700200400000000000000000000002000000064020000240000005F
:20037000FFFFFFFF84170020040000000000000000000000280000008802000024000000DC
:20039000FFFFFFFF8C170020040000000000000000000000580000003C01000034000000C1
:2003B000FFFFFFFF94170020040000000000000000000000100000006004000018000000D6
:2003D000FFFFFFFF9C1700200400000000000000000000001C000000AC020000240000004C
:2003F000FFFFFFFFA417002004000000000000000000000038000000F401000028000000BD
:20041000FFFFFFFFAC17002004000000000000000000000054000000000100003C00000058
:1804300018000000000000000000000040040000080000000000000050
:1804480018000000000000000000000058040000080000000000000020
:18046000180000000000000000000000700400000800000000000000F0
:080478000200000088D9000019
:0404800008F052BF6F
:040484000100000073
:0404880000008C0FD5
:04048C000000BC0FA1
:040490003200000036
:040494000100000063
:04049800E816002042
:04049C00000200005A
:0404A0000000000058
:0404A40001CA011078
:0404A8000000000050
:0404AC00000000004C
:0404B0000800000040
:0404B40000007612BC
:0404B800D01500203B
:0404BC00010000003B
:0404C0000017002001
:0404C400080000002C
:0404C8000000000030
:0404CC00000000002C
:0404D0000000000028
:0404D4000000000024
:0404D8000000000020
:0404DC00010000001B
:0404E00038160020AA
:0404E400060000000E
:0404E800010000000F
:0404EC00381500209F
:0404F0000000000008
:0404F4000000000004
:0404F80000020000FE
:0404FC0000000000FC
:02050000704742
:020502002800CF
:020504000100F4
:020506002400CF
:020508002C00C5
:02050A002D00C2
:02050C002E00BF
:02050E000100EA
:0105100001E9
:080514000300000054D90000AF
:08051C000000000000000000D7
:040524000000930D33
:040528000000AD0D15
:04052C0087C401106F
:04053000380500008A
:040534003805000086
:0405380000000000BF
:04053C0090610000CA
:0405400090610000C6
:0405440000000000B3
:040548000017002078
:04054C0093B6000062
:040550002000000087
:04055400A4D8000027
:0405580060D7000068
:04055C000DC30110BA
:04056000BFAE00002A
:040564001BB20000C6
:0405680099C801101D
:04056C009BC8011017
:040570000000000087
:0405740040BC000087
:040578007CD500002E
:04057C0094D5000012
:0405800064D500003E
:020584000280F3
:020586000380F0
:02058800C0179A
:02058A0001006E
:01058C00016D
:040590000000000067
:040594000000000063
:04059800000000005F
:04059C00000000005B
:0405A00085BA000018
:0405A40091A1000021
:0405A80099AF000007
:0405AC00E1A50000C5
:0405B00043A700005D
:0405B400E5A90000B5
:0405B8007584000046
:0405BC007FB8000004
:0405C000098E0000A0
:0405C40011C8011049
:0405C80021C8011035
:0405CC000800000023
:0405D0002400000003
:0405D400180000000B
:0405D80028000000F7
:0405DC0020000000FB
:0405E0003C000000DB
:0405E4000C00000007
:0405E80034000000DB
:2005EC002DE9F04FADF1840D00F016FD9148944904889148096806689048924A006806EA62
:20060C000007119706EA010712971768A74A1588A74A12681492A74A12681592A64A1094BA
:20062C001268169202EA00040A401892A34A17941268199202EA00040A40A2491A94A04830
:20064C001B9200681C90A0391D9194A113910820ADF820000A24ADF822404FF0FF3309933E
:20066C0008A809F031FE0028F1D100200F900824ADF830400923ADF832300CA809F024FEAA
:20068C00DDF838C0CDF878C00028CDF83CC040F02A81BDF834004FF00108102840F01B818B
:2006AC00A8489DF836100078884240F01481644620884FF6FF71814200F091802378913B2A
:2006CC0070D01F3B40F007816078109A162840D020797E2824D07F2810D0131C5CD0119B2B
:2006EC00002B59D0129B13B93888064254D040F2614000909CA3019320790FE0002A4BD0F2
:20070C00119B002B48D0129B13B93888064243D040F25C4000908DA301932089314610E018
:20072C001699002A38D0179B002B35D0189B13B93888014230D040F257400090BFA3019319
:20074C00207A0290DDF854C0139B14982A46E04722E019999AB11A9B8BB11B9B13B9388855
:20076C0001420CD040F23E40A1A30090DDF854C001932079139B029014982A46E047608849
:20078C0008210AF09FF938B9404605F013F96D484FF0000804619EE0217904F108000AF0AA
:2007AC00DBFD98E060780E2840F09580109C002C00F09180119C002C00F08D80129C1CB958
:2007CC003888064200F0878040F22140C5A400900022DDF854C001943146029258E06088B7
:2007EC00000978D357480469002C74D080785549B4F802B0401C887094F804A010200AF07B
:20080C00E7FB04F10809041C1ED0022115220BF029F8A4F808B084F80AA0C4F80C900AF094
:20082C00E7FBC44A214609F0E5FB0446162C0CD10FE0C046F8D90000B4D90000400500007B
:20084C003C0500004405000004243E480069042C3AD1109C1999002C3DD01A9C002C3AD02D
:20086C001B9C14B93888014235D0364840F2964200690092C9A401940079324B02909878C3
:20088C0003900022049214460594DDF870C00692139B14982A46E0471DE0C04670726F6AC2
:2008AC006563745F7A65726F2E6300C084050000D0D90000C8D90000B0D90000B8D9000093
:2008CC00CCD90000E0080020408800210AF0FAF8204605F06FF80F9C2CB1B8F1000F02D0B6
:2008EC001E980AF05DFD1748C0680BF09FF900287FF4ADAE1348C0680BF094F983460246B6
:20090C0010999BF808000BF10904002800F0C681401E00F01181401E00F0F980401E00F02A
:20092C000383401E00F0A880401E40F000830B1C45D0119B002B42D0129B43BB38880642C6
:20094C003DD001E0C007002021E0C0464D54552053697A65206368616E67653A2025642075
:20096C00627974657300C04652656365766965642047415454204D6573736167652E204F45
:20098C0070636F64653A2030782530327800A378002B0CBFBBA0BEA040F2A92100220091C6
:2009AC00ABA30193DDF870C0029011460392139B0491149805922A4606913146E047B4F8EF
:2009CC00008010200AF004FB041C00F0B082012113220AF047FFA4F808800020A0720246EB
:2009EC00E2600AF005FBAC4A214609F003FB9EE24F7574676F696E67205246204649464F93
:200A0C002066756C6C2E2052652D7363686564756C65207472616E736D697373696F6E200E
:200A2C006F66206D73672077697468206F70636F64652030782530327800C046466C6F7793
:200A4C0020636F6E74726F6C2076696F6C617465642E204F70636F6465206F66206F6666F9
:200A6C00656E64696E6720415454206D73673A2030782530327800C0002902F1090423D0A8
:200A8C00119B0BB3129B13B9388806421CD020780D2814BF97A09AA06378002B0CBF9BA155
:200AAC009FA140F22332BCA30092DDF870C0019300220290139B03911498049211460591B4
:200ACC00314606922A46E04723780D3B1CD05B1E40F02D8201200146641C224602F0ACFA55
:200AEC0025E2C04648434920436F6D6D616E6420436F6D706C657465204576656E7420721D
:200B0C00656365697665640001210020E4E7238841F210101B1A06D0103B40F00882207940
:200B2C006188641DD9E720796188621D03F096FCFDE1C04655B8000023880FF2642E0FF2C9
:200B4C00742CA2A2B3F5895340D0103B40F0EF81B4F8050048B1401E04D0401E08BFCDF860
:200B6C007CE003E0CDF87CC000E01F922079012840F0DD81002900F0DA81119C002C00F00B
:200B8C00D681129C1CB93888064200F0D0811F9940F2FA3077A47EA2E9E0C046526574726B
:200BAC0079696E67206D6573736167652077697468206F70636F6465203078253032782E02
:200BCC0020417474656D707420256400B4F8050048B1401E04D0401E08BFCDF880E003E058
:200BEC00CDF880C000E0209224799CB1641E40F09E81002900F09B81119C002C00F0978181
:200C0C00129C1CB93888064200F0918140F29D30A8A20FE0002900F08A81119C002C00F016
:200C2C008681129C1CB93888064200F0808140F292309AA24FA49BA3209900900194029351
:200C4C000392049100240594224606921DE1C046426F6E644D677220526571756573746586
:200C6C00642070617373636F64652E205765206172652025732070617373636F64652025C1
:200C8C0030366400446973706C6179696E6700C053656E64696E670047B80000238841F205
:200CAC0010101B1A00F09B80203B40F040812379002B3ED05B1E40F03A81002900F0378172
:200CCC00119B002B00F03381129B1BB93888064200F02D8140F2CD300090B8A301936079DF
:200CEC000290A0790390E07904900022059211460691CAE0427574746F6E203100C046C0D9
:200D0C00427574746F6E203000C046C01B5B33336D72656C65617365641B5B306D00C0468E
:200D2C001B5B33326D707265737365641B5B306D00C085480021282207F0FEF98248641D25
:200D4C002722214606F0B8FC109C002C00F0EF80119C002C00F0EB80129C1CB93888064237
:200D6C0000F0E580784940F2C6308BA491A2A2A363E7C04643434344204368616E6765209F
:200D8C006D73673A2025732025733A20257300C053747265616D00C0257320257300C04622
:200DAC00496E6469636174696F6E7320656E61626C6564004E6F74696669636174696F6EE0
:200DCC007320656E61626C656400C0464E6F74692F496E642064697361626C656400A1784E
:200DEC001D9A601D07F062FD04F105092479109B0FF2142A0FF21428002C5FD0641E40F089
:200E0C0096801C1C1CD0119CD4B1129C14B93888064215D07E4940F25E305FA4009059A3DC
:200E2C005BA20194DDF870C00293002414980392139B049122460594314606922A46E0472B
:200E4C00744899F800208069072109F079F8109C002C6CD0119C002C69D0129C14B938883D
:200E6C00064264D099F8004004B1C24640F2663040A300903BA401940293CDF80CA0002285
:200E8C0004921146059114460694DDF870C0139B149831462A46E04749E0C04642555454F4
:200EAC004F4E3000427574746F6E205365727669636500C0425554544F4E3100E3B1119CDE
:200ECC00D4B1129C14B93888064215D0504940F24F3031A400902BA320A20194DDF870C040
:200EEC000293002414980392139B049122460594314606922A46E047464899F800208069DA
:200F0C00062109F01DF8109C8CB1119C7CB1129C14B9388806420AD099F8004004B1C246E2
:200F2C0040F2573009A3A4E7507A02F0A3FB0820ADF82800CDF82CB00524ADF82A400AA8DB
:200F4C0009F0C2F9CFE4C046E00800201B5B33316D4C4544301B5B306D00C0464C454430A6
:200F6C0000C046C05475726E696E6720257320257300C0461B5B33326D4C4544311B5B304E
:200F8C006D00C0464C45442053657276696365004C45443100C046C056616C756520436878
:200FAC00616E6765206D73673A2025732025733A20257300537472696E6700C056616C75B8
:200FCC0065204368616E6765206D73673A20446174612053657276696365205374726561EF
:200FEC006D3A20253032783A253032783A253032782E2E2E00C046C0446174612053657299
:20100C007669636500C046C06F6666006F6E00C040080020C00700202DE9F04F0820ADF115
:20102C00AC0DADF830004FF00109ADF832900CA809F04AF999489DF83410854A01700E99D5
:20104C00168881608149834F09680FF2582A2991D6B13868014217D08F480068014204D113
:20106C00C0480068008801420ED0C1484FF4BC7590A30468009500220193BC4DBA4B029242
:20108C0018682A885346A0478448002405462146C461443528460AF0C1FD80480146C560F8
:2010AC000B46683103F15C0006F038FC3D687B49DFF8C0B22A958861F0B958460168CEB137
:2010CC002846014216D074480068014204D1A5480068008801420DD0A54840F2891785A34D
:2010EC0005680097A14F01939F4B02943A8818685346A8470AF08EFD684868495030743107
:20110C0006F00CFC6549486100BB58460168CEB12A98014216D060480068014204D1914841
:20112C000068008801420DD0914840F28F177AA3056800978D4F01938B4B02943A881868A3
:20114C005346A8470AF066FD544840698A490AF0C9FBF0B158460168CEB12A98014216D0B6
:20116C004D480068014204D17E480068008801420DD07F4840F295176FA3056800977B4FF3
:20118C000193794B02943A8818685346A8470AF041FD03A82146242208230AF037FD0D2075
:2011AC00774F0990DFF8D4813A683C484FF47A7B322503ABBBFBF2F1D8308AB26A43414624
:2011CC000AF020FD0E20354A3968099003AB02F1FC00BBFBF1F189B24D432A4641460AF014
:2011EC0011FDC846ADF84C4040F205300DF19E0249468DF89E8002F09DFB40F2063002214A
:20120C0013AA02F097FB254A4FF442704946521C02F090FB214A40F2073011211546903280
:20122C0002F088FB9035002E00F0BD8029992A98014200F0B8801848006801420CD14948A5
:20124C0000680088014200F0AE8005E0B4D90000F8D9000040050000104F2146202207F1A9
:20126C00B60006F069FF41483F4F414BB0F800B0D7F8009020461F682A5C401CC0B22B5C2C
:20128C004119092B18BF082B01D11F2A7ADB1218D0B22028F0DB03E03C050000C007002070
:2012AC0075E0C04670726F6A6563745F7A65726F2E6300C0496E697469616C697A696E6775
:2012CC00207468652075736572207461736B2C2068617264776172652C20424C452073742F
:2012EC0061636B20616E642073657276696365732E00C0464572726F7220696E6974696100
:20130C006C697A696E6720626F617264204C45442070696E7300C0464572726F7220696E36
:20132C00697469616C697A696E6720627574746F6E2070696E7300C04572726F7220726516
:20134C00676973746572696E6720627574746F6E2063616C6C6261636B2066756E63746903
:20136C006F6E00C044050000D0D9000084050000C8D90000B0D90000AD6B0000158700006B
:20138C00A4D900009548491C521E06F095F940F2C7107CA5009029990195904D5A46534666
:2013AC0048460295B8470620A02108F073FF0720A02108F06FFF0820A02108F06BFF0920EA
:2013CC00A02108F067FF40461E2108F063FF129447468DF89F8020468DF8A08004218DF837
:2013EC00A10012AA8DF8A2704FF4816008F038FF4FF4806041460DF19F0208F031FF40F2F7
:20140C000240414628AA08F02BFF40F2034041460DF1A10208F024FF40F2064041460DF14E
:20142C00A20208F01DFF032009F0A0F8042009F09DF86748674A132108F0ECFC664903203C
:20144C0008F0BAFDB84CB94A052104F10C0008F0E1FC29990FF2541ACEB12A98014216D033
:20146C00B9480068014204D1B8480068008801420DD0B7480468DA2705250097B54BCDF8DD
:20148C0004A0B54F02951A883868AAA3A047B348057809F043FBAB4900288B46C8602DD0CA
:2014AC0009F086FD09F03AFBCBF8100030B309F07FFDC64A0BF11400072108F0ABFC2999A2
:2014CC00D6B12A98014217D09F480068014204D19E480068008801420ED09D4840F2011700
:2014EC00046800970723CDF804A09A4F02939A4B3A881868B6A3A0478BF800509748C94C9E
:20150C00082504230778ADF83C502278ADF83E30900010900FA808F0D7FE00280CBF1198BE
:20152C000020C1490028C8605AD009F041FDBE48BE4A06214C3008F06DFCDDF8A890DDF8D0
:20154C00A480E6B118EA090F19D07F48006818EA000F05D17D480068008818EA000F0ED007
:20156C007B480568EE23062200937A49CDF804A0794B02920A88186841469AA3A847AA4828
:20158C00077031E04E616D6520696E20616476657274446174612061727261793A201B5B10
:2015AC0033336D25731B5B306D00C0465265676973746572656420736572766963652C2030
:2015CC002564206174747269627574657300C046881000203CD9000019BA000076080020CB
:2015EC00DDF8A480DDF8A8905C484F4981A72C308860D6B118EA090F17D05349096818EA9A
:20160C00010F05D151490968098818EA010F0CD04F49E9230D6800934E4901974E4B029048
:20162C000A881868414643A3A8474C483430CBF80800DEB118EA090F18D04349096818EADD
:20164C00010F05D141490968098818EA010F0DD03F494FF489730D6800933E4901973E4BA6
:20166C0002900A881868414659A3A8473B486E493C308860D6B118EA090F17D03249096846
:20168C0018EA010F05D131490968098818EA010F0CD02F49FF260D6800962E4B01972E49BC
:2016AC0002901A8808684FA34146A8470DF14E000021282206F040FD5D490DF176002822C4
:2016CC0005F0FAFF002001210DF14E0202F0C6FE01200DF14E02014602F0C0FE0020012122
:2016EC000DF14E0201F0A8FC01200DF14E02014601F0A2FC002028210DF1760201F05CF991
:20170C00012014210DF14E0201F056F9A078002840D112486678E57820306062182009F0B0
:20172C0057FC071C36D003E08C140020E0D6000016E0C0466C65645F736572766963652E19
:20174C006300C046081400203C05000044050000C8D9000084050000D0D90000C007002094
:20176C000421002209F06EFF304609F090FB38727D720020B87204F14806FE6004F15803E2
:20178C003B6104F120027A6109F032FC294A394608F030FC0C2009F01BFC041C0BD0012119
:2017AC0004220AF05FF824482430A06009F020FC214609F0F5F90120102108F0F1FE022028
:2017CC00102108F0EDFE2BB0BDE8F08F5CD60000627574746F6E5F736572766963652E633B
:2017EC0000C046C0646174615F736572766963652E6300C05265676973746572656420634B
:20180C00616C6C6261636B7320746F206170706C69636174696F6E2E2053747275637420D5
:20182C00257000C0780C0020C812002088D60000FDD5000025BA0000C00700202DE9F04F5E
:20184C000120ADF15C0DADF81A000827ADF8187006A808F039FD00263546DE4C8DF8545069
:20186C009DF81C006070A6700898E0614FF6FF70A082384609F0ACFB5FEA00080CD00121A1
:20188C00122209F0EFFF09F0B3FB15A90123DA4A0091414608F0CCFB9DF854000121207002
:2018AC0004F1A80008F014FE04F1CC00022108F00FFE04F1F000042108F00AFE04203146E7
:2018CC001022E07004F1480006F036FC04F158003146102206F030FC2562267266720720DF
:2018EC00E67204F148021021A072022008F00AFE04F158020320102108F004FE042004F12A
:20190C002002014608F0FEFD19E0A078B4F84050B4F84230B4F84420B4F8461006280ED1D5
:20192C00ADF84250ADF84430ADF84620CB48ADF848100AF09DF8012010A906F07DFB0A202F
:20194C00ADF80A00ADF808704FF0FF35039502A808F0BAFC002840F0E18130460C90ADF8DB
:20196C0024700925ADF8265009A808F0ADFCDDF82C900028CDF8309040F0D081BDF8280090
:20198C00102840F0BF8160789DF82A10884240F0B9814D4628884FF6FF71814200F0AA81E2
:2019AC002B78A23B00F08F812E3B40F0AB81A878B046002800F05C81801E00F03481401E2A
:2019CC00012840F20981801E00F0B980401E7FD0401E60D0083800F06781801E40F0698144
:2019EC0094F83E30A888052BADF834004BD001208DF83E0099480AF03BF894F83E000128A8
:201A0C0020D004281ED003280DD002280BD00C98C188ADF836100189ADF838104189ADF8E5
:201A2C003A1080892BE0B4F84000B4F84250ADF83600B4F84430ADF83850B4F84600ADF853
:201A4C003A301CE0B4F84000E9888842D8BF081CADF836002989B4F842008842D8BF081C32
:201A6C00ADF838006989B4F844008842D8BF081CADF83A00B4F84610A889814200DC01461E
:201A8C00ADF83C1001E08DF83E60B14A0DA8122108F0EDFD0DE1AF4809F0EAFF68780028B1
:201AAC0040F00781E888E08228892083688960836A4809F02DFE002840F0FB80A56A002D83
:201ACC0000F0F7802B68E08A218B628B9847F0E0B5F804A00A2009F07BFA5FEA00080AD03A
:201AEC000121152209F0BEFEA8F808A009F080FA414609F055F8B9483146062206F01CFB97
:201B0C00E68226836683A8796073544809F0B0FF904809F0ADFF4FF001084FF6FF70637932
:201B2C00A0824BB9A879082814BF04200520A070404609F0D1FCBCE00320A070B9E0687862
:201B4C00002840D1A549281D02680A60808888800623A3706889A082E889E082288A2083B2
:201B6C00688A6083E878207394F83E00012818BF022808D11F2008F02FF94FF47A714143B3
:201B8C00364808F0C7FA95F803B0B5F80AA0142009F01EFA5FEA000800F08E80012114227F
:201BAC0009F060FE88F808B02D1DC8F80C50A8F810A0042088F8120009F01AFA804A4146C0
:201BCC0008F018FA78E0687831286BD12671042023E0C046780C00206878002862D1A8785F
:201BEC00618AA278032813D02079657931B9012814BF6671267107E063B80000054303D0DE
:201C0C00724808F087FAA278072AE0D1062004E0062A06D0207910B90320A0704CE0022096
:201C2C00FBE70720F9E7687800283BD1EB78A078E179ABB9022818D0072816D0062802D13A
:201C4C006179012911D103280FD0604809F060FD58B9012009F040FC07E0C046440D0020C5
:201C6C005F4A404607F0ACFB68706878D0B920E06878B8B9564A0220102108F05DFC554A16
:201C8C000320102108F058FC5648ED1C29680160AB888380544A01252846A179A57007F071
:201CAC008FFB48B1A77007E0A888464A102108F0C5FCB8F1010F25D1606A18B3016809B384
:201CCC00A07888471EE0687913281BD12889012808D1A07B022805D11E4809F0C9FE07F020
:201CEC0065FD0FE0052008F077F80146194808F011FA07E06888C00B04D3374A04200146EB
:201D0C0008F01AFC0C9848B1ADF810700320ADF81200CDF8149004A808F0D6FA208A6579A8
:201D2C002179420831D320F0010055EA010320822BD08DB92D49207A8DF84A00657A8DF835
:201D4C004B500A6813AB1A608988998007E0C0461FBA0000680D002003208DF84A00A07AA1
:201D6C00E57A194A8DF8520006218DF853500DF14A0007F0C7FE616A30B1A77021B1086866
:201D8C0010B1096838468847208A810807D3184920F002002082304606F04EF9208AC10870
:201DAC00FFF4CDAD20F00400A57B2082681E3FF4ACAD401E7FF4C3AD07F0F8FCBFE5C046EC
:201DCC0039B8000043BA000037BA0000200D0020C00C0020D00C0020980C0020B00C002043
:201DEC00FF0C0020A40C0020E00C0020AA0C0020B60C00202DE9F84F8046DD480122A0F11C
:201E0C0030010A60D7490F68002FFCD0D74ED64AC02706F1040B1760DBF80010890804D296
:201E2C003168090C41F0F00100E07221E34AE44D4FF0000982F85412A5F1D407C0F8009014
:201E4C00D6F808A03868C0F3046009F0D3FC5246534600EB2270401C162805DA10F10A0F40
:201E6C00B8BF6FF0090000E01520E649E64F00F01F0040F4F8500880386880083ABFE3489F
:201E8C00C0F8009042F04062E149A5F13C04D00E970E80F0010000F00100086087F0010055
:201EAC0000F0010088602068C0F38367C0F38F215FEA9A4022D243F3072000280BD54242B5
:201ECC004846490805D17F0806BF0127391C4FF6FF71521EF5D1002810DD4FF6FF72490079
:201EEC0041F001018A4207D27F0047F001070F2F92BF01210F27111C401EF0D141EA07419A
:201F0C00182008F063FA20682768C34CC0F3870140F2FF324B4607F0030041EA0021274620
:201F2C0088B22C210090A7F1400007F0ABFCA5F110073868C0F30D011C2008F047FAB54987
:201F4C0057F8080C014000F07C400143142008F03DFA57F80C1C01F47C000904090C014330
:201F6C00102008F033FA57F8042CDBF80010C2F30350C2F30343490812D231680E0510EBBF
:201F8C00267003D41028A8BF0F2000E04846090413EB217303D4102BA8BF0F2300E04B46D1
:201FAC0043EA001302F47F4002F0FF01B8F1220F40EA034041EA000124BF02F080421143D0
:201FCC000C2008F003FAB8F1220F32BF01202868C0F30070B8F1220F4FEA400040F0200092
:201FEC0084F8090126BF2868C0F3407001208B4EB8F1200F40F0100084F8090138BF494659
:20200C0006D33168C80C00F44070C1F384510143282008F0DBF9B8F1200F26BF3068C0F3E1
:20202C0001504846B8F1220F4FEA400040F0600084F80C0126BF2868C0F3C0604846B8F1CA
:20204C00220F4FEAC00040F0800084F8010126BF2868C0F345504846B8F1200F4FEA800040
:20206C0040F47C40A4F89C0138BF6D490AD3306801038A15920501F47C1100F00F001143FA
:20208C0041EA0031082008F0A1F92E464FF480002060A6F1D000816D40F20F226FF31F41ED
:2020AC008A4213D901680068C1F30367C0F3034007B17F1E072805D006280EBF0720801C60
:2020CC0000F00F003D4947EA00100870CAF381477F1E02D07F1E28D023E03168880C20D20B
:2020EC004FF4804020604F48D0F802204B0AC1F3033703F0800322F08F02134347EA0302E8
:20210C00C0F80220D0F801300F0A67F30303C0F80130026801F0E70722F0E70247EA020106
:20212C0002E04FF0004120460160DBF80000C0F3C0070FB94020A0624FF400703E4F20642F
:20214C0028684FF04008C0F3C14040F0300084F8C800CAF38150A8B3401E0BD0401E28D08C
:20216C00022127E09402224300600C40AC3F005040100940012009F04BF805460420294673
:20218C0007F00AFA042009F043F88542FAD12648056825F07F4008F05FFB38461430006823
:2021AC00036807214FF06022280E98474FF4806020600321042007F0EFF90AE0026008404C
:2021CC008C1300500420012107F0E6F9174808F043FB203E30681649164B47F6180500F053
:2021EC003F0084F8CB0F3A460D8018681068C168022088471248114EC0F80080012131607B
:20220C00BDE8F88F6E6208400000094094042A4300002043FCFCFC0040A00C4098130050A2
:20222C0000803F400A600840A83F0050BD37860070B00C402C200940A00100109404604244
:20224C0000600C402DE9F04F09AFADF13C0D1E460025DFF8F891DFF8F881DFF8F8A1089091
:20226C003C8838790A92DFF8F0B10B90FF200D9008780991022809D10846494640680F8838
:20228C00008842F60213834200F0E880099806F03DFE07464946ACA2002F0B880C97994600
:2022AC0040D07F1E1FD096480168D3B195480068014216D094480068014204D140460068F3
:2022CC00008801420DD0934840F2292797A6046800978F4B01968D4F02951A8838688FA355
:2022EC00A0470A2009E150465F46B9F1000F4FF0140A0168079707F1040B3FD08148006838
:20230C0001423BD080480068014204D1404600680088014232D080484FF4097307680093D7
:20232C009AA31DE050465F46B9F1000F4FF0280A0168079707F1020B20D072480068014291
:20234C001CD071480068014204D1404600680088014213D0704840F21623076800938DA35B
:20236C000192029308980390049605940B98684B06901A88654B186868A3B847A24530DD07
:20238C003719BA4521DA5E480168B9F1000F1AD05C480068014216D05B480068014204D1DD
:2023AC0040460068008801420DD05A484FF40D730768009379A20192554B0295534D1A88ED
:2023CC00286856A3B8470D252CE009980A99C0683246201805F070F9ABF800700C980D905D
:2023EC0020E047480168B9F1000F1AD045480068014216D044480068014204D1404600681E
:20240C00008801420DD0434840F22F23076800936BA201923E4B02953C4D1A8828683FA39A
:20242C00B84707250D98FF280DD00798806850B1076847B1A419A0B200900C9A0A9B089843
:20244C0041F23011B847284657E0C046F8D9000044050000B4D90000C812002050460068B3
:20246C00002F81462ED02748006819EA000F29D02548006819EA000F05D140460068008847
:20248C0019EA000F1ED00B98FE280CBF0FF254180FF26C18099806F039FD1F4940F2FB1335
:2024AC000F68009359A20192029008980390CDF8108017490595154B06950A8818684946C8
:2024CC0016A3B847089809990A9A0094334606F055FA05465846083007686DB967B1786852
:2024EC0050B1099806F012FD009602460A9B7C68089841F23011A047E8B20FB0BDE8F08F4A
:20250C00B0D90000400500003C050000D0D9000084050000C8D90000CCD90000646174618E
:20252C005F736572766963652E6300C041747472696275746520776173206E6F7420666F69
:20254C00756E642E00C046C05772697465417474724342203A20257320636F6E6E48616E12
:20256C00646C6528256429206C656E28256429206F666673657428256429206D6574686F49
:20258C0064283078253032782900C04653747265616D00C0537472696E6700C0496E7661DC
:2025AC006C69642076616C7565206C656E677468207761732072656365697665642E00C037
:2025CC00416E20696E76616C6964206F666673657420776173207265717565737465642E07
:2025EC0000C046C02D20726573746F72696E6720626F6E64656420737461746500C046C04C
:20260C002D204F5441207772697465005772697465417474724342202843434344293A202F
:20262C00706172616D3A20256420636F6E6E48616E646C653A202564202573002DE9FE4F82
:20264C00B84C0F460646F80B80F04781B80880F0D480B54DDFF8D892DFF8E0B2DFF8E8821D
:20266C00DFF8F4A22C68B80F67D2B0480678002E47D1380947D3AF480126494606700024EF
:20268C000C70204603F047FEAB48FDF72DFDAC492246584609F0E1F9AA48017801291CD1B3
:2026AC0041460B78CBB9A94E306880B108F098FF2B68A8493668A64D0A68C01A000B82182B
:2026CC002860B2EBC61F28BF0C6007D20A60A4484FF0005108F040FF2CE00670504640F64D
:2026EC0009010180417B01F0F00141F0010141734480017B01F0F00101734460974E30600F
:20270C0018E0390914D2B80BC0F004819D48001D09F0ACF9061C08D0706830B17468F0680E
:20272C00B6F91C1098A20CCAA04727F40057F1E00021017027F00807ECE0ECB1042008F03B
:20274C0067FDC8B108F04CFF864A29681060814226BF401A401E401A000BF060F06800F51A
:20276C008D70F060F16840F6C410884203D340F2EE228A4200D9F0600024D6F818C02C6070
:20278C00BCF1000F10D050460D30007810F00F0F0AD1708C40F60901814205D17CA20CCA84
:2027AC0030466FF48071E0476F495846224609F054F94546287850B10220ADF80000684677
:2027CC0008F0C6FA2C70BDF808006849088049460120674A674B087010781C70401C107028
:2027EC00192008F0A5FF756925B16BA20CCA30462146A84727F000578CE004F10C0A50461A
:20280C0009F034F9061C5FD007F0F4FC7368B2690025B561E3B1F37F42F002024FF0000999
:20282C00904603F007035B1E07D05B1E03D09B1E06D15BA002E05CA000E05DA090E800035C
:20284C007268F068B6F91C104B4694464246E04709F0D4F98046B4F91200401C6FF31F30ED
:20286C006082E0681F30017801F07F010170504608F0F6FD404609F0BDF9F068B0F994101D
:20288C00B4F9122091421FD13B49097801291BD090F896409CB904688CB1384909680968B1
:2028AC00B1F1FF3F10D0364909687030B4FBF1F109F09CF9F068703009F094F904E080F8C3
:2028CC009650284606F0F0F8504609F0CFF827F0020708B147F002071CE009F08FF9014687
:2028EC002046083009F0C2F80646B469084609F081F9A0080CD25EB17068B169A143B161D4
:20290C0030B17568F068B6F91C1000232246A84727F480471FB11248394608F01DFEBDE8FD
:20292C00FE8FC04658260020A0260020C5260020C1260020BF260020018400000C26002086
:20294C0009AF0000C3260020BE2600209C260020A8260020982600206C26002000100440F2
:20296C00D8240020A426002005610000D0250020C7260020C0260020E0170020AC260020AE
:20298C00A4D9000058260020000000002000000000000000000000020000000000000004EA
:2029AC000000000000000010000000000000004000000000000000202DE9F04F05467F4834
:2029CC007F4CADF13C0D0FF2442C0F46DFF8F4A1DFF8F491DFF8F4810088DFF8F4E1079094
:2029EC002E1C0890E068099245D0761E21D0BD48079F0168002F00F0DD80BB48006801422E
:202A0C0000F0D880B9480068014205D1504600680088014200F0CE80B5484FF49A7771A671
:202A2C0004680097434601964F4602951A88386876E0089E8346231D04F110027046142102
:202A4C000B93002E0A9205680C914FF001030D933FD0A548006805423BD0A44800680542C4
:202A6C0004D1504600680088054232D04FF498736DA200211CE0089EA31C704604F12402F6
:202A8C0000210B9305680A920D9128230C9306B39548006805421CD094480068054204D149
:202AAC00504600680088054213D040F2251360A2904806680093CDF804C0029203970491C9
:202ACC0005914346069149461A88086841A32946B0470C98B84226DA8248089E0168002EA4
:202AEC0068D081480068014264D080480068014204D150460068008801425BD07D4840F2B7
:202B0C004D16046800964CA501950297002303930C9A0492464605934D4606933288286895
:202B2C002CA3A04746E00A9809993A4604F0C4FD0D9E0B98002E07803CD0079829460028EF
:202B4C002BD069480068014227D068480068014204D150460068008801421ED0654B4046FE
:202B6C004E4602889BF802701D683068002F19A308BF3FA703D0012F0CBF44A749A74FF485
:202B8C00A27600964CA60196BBF80060029603970027049705970697A84706200090564F68
:202BAC000A99207804F14C03002201905846029704F038FC0FB0BDE8F08FC046F8D90000BE
:202BCC00C812002044050000D0D9000084050000B4D90000646174615F73657276696365FD
:202BEC002E6300C0536574506172616D657465723A20506172616D657465722023256420C4
:202C0C006E6F742076616C69642E00C0536574506172616D65746572203A202573206C6569
:202C2C006E3A20256400C04653747265616D00C0537472696E6700C04C656E677468206FDD
:202C4C0075747369646520626F756E64733A204C656E3A202564204D696E4C656E3A2025F1
:202C6C0064204D61784C656E3A2025642E00C0461B5B33336D4E6F74692F696E642064692E
:202C8C007361626C65641B5B306D00C04E6F74696669636174696F6E20656E61626C656418
:202CAC0000C046C0496E6469636174696F6E20656E61626C656400C0547279696E67207484
:202CCC006F2073656E64206E6F74692F696E643A20636F6E6E48616E646C652025782C200E
:202CEC00257300C0B0D90000400500003C050000C8D90000CCD90000C93D00002DE9F04FC0
:202D0C0009AFADF13C0D08900A92388809911E46ADF81800101C08BF002000F0848100272A
:202D2C0000F101094FF0FF3A4FF0010BB8466CE1252940F063811078521C0A922D2818BF5E
:202D4C00ADF8068005D15846551CADF8060010780A9530281CBF4246434605D10A99087848
:202D6C005A465B46491C0A912A28CDF80080554616D1306804930A99CDF808A0C01C4B1C6B
:202D8C0020F00300001D306050F8044C0A93002C0878009418D5ADF806B06442009413E07D
:202DAC0044460AE0610001EBC40140180A99A0F1300408780094491C0A91302801DB3A2817
:202DCC00F0DBCDF808A004932E282BD10A9908782A2801F101010A9111D13068CDF80880FB
:202DEC00C01C20F00300001D306050F8045C002D48BF454608782B46491C0A9111E0454657
:202E0C0043460AE0690001EBC50140180A99A0F1300508782B46491C0A91302801DB3A28D0
:202E2C00F0DB02930AB1224604926C2804D04C2818BFADF8048005D10A990878ADF804B03F
:202E4C00491C0A910BA9CDF80C800FAB07916428059300F08B80692800F08880BDF818C0DA
:202E6C00752872D078286ED06F286AD0702850D063283DD073281ED009980A990128A1F1E0
:202E8C0001010A9115D96B490C68B5F1FF3F03D0A84288BF6D1C00D8099D029508A80AA98A
:202EAC0032466B46A047C7190A99039801F1010974E040462AE030680A99C01C20F00300CE
:202ECC00001D306050F8040CBCF1000F01F10109014608B955A00146079108F0A9FB03901E
:202EEC00B5F1FF3F5BD0A842C4BF281C039056E03068C01C20F00300001D306010F8040CF1
:202F0C005D468DF82C000A990395584601F1010945E0082035680490E81C20F00300001DCA
:202F2C00306050F8041C082210230FA805F048FB401E0790402101700A99079801F101093C
:202F4C0029E0082302E0102300E00A230A99306801F10109C01C20F00300001D306050F8F4
:202F6C00041CAA42BCBF2A1C049210E00A99306801F10109C01C20F00300001D306050F8D7
:202F8C00041CAA42BCBF2A1C04926FF009030FA805F016FB0790059D281A0390009C241AB2
:202FAC00BDF8065000945DB906E008A8202109AA07F0A4FE009C7F1C641E0094F5D503987B
:202FCC000546401E039075B9BDF80600E8B10098401E009019D408A8202109AA07F08EFE8D
:202FEC0000987F1CF4E70798411C0791017809AA08A807F083FE03987F1CE1E708A809AA6E
:20300C0007F07CFE7F1C09F101094A460A9812F8011C401C00290A907FF48AAE089808B118
:20302C004146017038460FB0BDE8F08F286E756C6C2900C0DCD900002DE9F04F0546BE4C00
:20304C00BC48DFF800B3DFF800A3DFF80093DFF80083DFF804E30F46ADF1340D0FF2FC1C8D
:20306C002E1C0892E1680288206907923CD0761E20D0B2480168171C00F0CF80B0480068A6
:20308C00014200F0CA8058460068014205D1504600680088014200F0C080AE484FF4A5773A
:2030AC0064A604680097434601964F4602951A883868B0E00B90A61D7046A31C002A0A963C
:2030CC00056809933AD09E480068054236D058460068054204D150460068008805422DD04A
:2030EC004FF4A37364A217E0261D7046631C0B910A96056809930AB39148006805421DD07F
:20310C0058460068054204D1504600680088054214D040F23B135AA2904806680093CDF8B6
:20312C0004C0029203970021049105914346069149461A8808683AA32946B047022F46DAF0
:20314C00002F44D0099808993A4604F0B5FA079E0A982946002E07802BD0794800680142E9
:20316C0027D058460068014204D150460068008801421ED040460B9E0288784B4846B7783E
:20318C001D680068002F26A308BF3FA703D0012F0CBF44A749A74FF4AD7600964CA6019663
:2031AC000B9E3688029603970027049705970697A8470720009020780190694F02970B98AC
:2031CC00099904F11403002204F02CF925E05C4D5A4C07982A682168061C1ED011421CD09D
:2031EC0058460068014204D1504600680088014213D05A4840F26316046800963FA5019530
:20320C0002970123039300220493464605924D4606923288286802A3A0470DB0BDE8F08F91
:20322C00627574746F6E5F736572766963652E6300C046C0536574506172616D6574657272
:20324C003A20506172616D6574657220232564206E6F742076616C69642E00C05365745090
:20326C006172616D65746572203A202573206C656E3A20256400C046425554544F4E31008A
:20328C00425554544F4E30001B5B33336D4E6F74692F696E642064697361626C65641B5BFB
:2032AC00306D00C04E6F74696669636174696F6E20656E61626C656400C046C0496E646989
:2032CC00636174696F6E20656E61626C656400C0547279696E6720746F2073656E64206EE1
:2032EC006F74692F696E643A20636F6E6E48616E646C652025782C20257300C04C656E67D1
:20330C007468206F75747369646520626F756E64733A204C656E3A202564204D696E4C65AC
:20332C006E3A202564204D61784C656E3A2025642E00C046F8D9000008140020B0D900001E
:20334C00400500003C05000044050000D0D9000084050000C8D90000B4D90000CCD900008D
:20336C00893B00002DE9F04F09AFADF13C0D08900B9397F804B00A923F880991084605F0D0
:20338C001DFEB149DFF8C8A2DFF8C892DFF8C882B74B0E8800240546FF2084A2002D0D9063
:2033AC00B149B2480C953DD06D1E1FD0A7480168D6B150460068014216D0484600680142A6
:2033CC0004D140460068008801420DD0A54840F2ED176FA605680097A14B01969F4F029433
:2033EC001A88386866A3A8470A20C5E000F1040C002E07900968CDF838C03CD050460068BA
:20340C00014238D048460068014204D140460068008801422FD018464FF4F4730568009387
:20342C0073A319E000F1020C07900968CDF838C00EB35046006801421DD048460068014285
:20344C0004D1404600680088014214D018464FF4ED730568009368A3019202930898039087
:20346C000B9A049205977E4BCDF818B01A887B4B186843A3A847002F4CD10B9D60A2ED195A
:20348C00022D28DACDB9BBF1180F18BFBBF1120F13D150466D4900680968002E38D0014270
:2034AC0036D048460068014204D140460068008801422DD040F201261FE009980A990B9AF5
:2034CC00C068381804F0F8F8002D42D00C980D900E9E35803DE05D480168CEB150460068FB
:2034EC00014215D048460068014204D140460068008801420CD04FF4FC765A48056800969B
:20350C00574B0192554E02941A8830681CA3A8470D241EE04D480168D6B150460068014254
:20352C0016D048460068014204D140460068008801420DD04B4840F2F3163AA30568009647
:20354C00474E0193454B0294328818680CA3A84707240D98FF280ED00798806858B1066865
:20356C004EB10B980C9A0A9B3F18B8B20090089841F21011B04720460FB0BDE8F08FC046C7
:20358C006C65645F736572766963652E6300C04641747472696275746520776173206E6FE7
:2035AC007420666F756E642E00C046C05772697465417474724342203A20257320636F6EBE
:2035CC006E48616E646C6528256429206C656E28256429206F666673657428256429206D04
:2035EC006574686F64283078253032782900C0464C45443100C046C04C45443000C046C016
:20360C00496E76616C69642076616C7565206C656E6774682077617320726563656976658A
:20362C00642E00C0416E20696E76616C6964206F66667365742077617320726571756573AF
:20364C007465642E00C046C0F8D90000B0D90000400500003C05000044050000D0D900005B
:20366C0084050000C8D90000B4D900008C140020CCD900002DE9F04FA549A64EA64DA74C05
:20368C00DFF89CB2DFF89CA2DFF89C92DFF89C820F88401EADF1240D00F09080401E75D083
:2036AC00801E61D0401E4DD0401E2ED0401E17D0401E40F0C9803168002F00F0C5802868AF
:2036CC00014200F0C1802068014205D15A4610680088014200F0B88040F20A3060A766E005
:2036EC003168002F00F0B0802868014200F0AC802068014205D15A4610680088014200F073
:20370C00A38040F2FE2058A751E040F2153004A902F048FB04A805F0A3FE3168002F00F0A7
:20372C0093802A68114200F08F802268114205D15A4612681288114200F0868040F2F92784
:20374C0050A676E03168002F7ED0286801427BD02068014204D15A4610680088014273D017
:20376C0040F2063051A722E03168002F6CD02868014269D02068014204D15A46106800888B
:20378C00014261D040F202304EA710E03168002F5AD02868014257D02068014204D15A4634
:2037AC001068008801424FD040F2EF204AA74246146800900197002602963FE04FF441706C
:2037CC0006A902F0EFFA9DF819308DF8113000218DF814109DF81A208DF813109DF81800C1
:2037EC008DF812209DF81D308DF810009DF81C208DF8173004A98DF816209DF81B304C4A14
:20380C008DF81530086810604B68536006A805F027FE3168C7B12A68114215D0226811420C
:20382C0004D15A461268128811420DD040F2EA272CA64246146800970196029053464D46BE
:20384C0018682A8802A3A04709B0BDE8F08FC04670726F6A6563745F7A65726F2E6300C054
:20386C004572726F7200C046436F6E6E656374656420616E64206164766572746973696EED
:20388C006700C046436F6E6E65637465642E205065657220616464726573733A201B5B3339
:2038AC00326D25731B5B306D00C046C0436F6E6E656374696F6E2074696D6564206F757431
:2038CC0000C046C0446973636F6E6E6563746564202F2049646C6500416476657274697314
:2038EC00696E670047415020697320737461727465642E204F757220616464726573733ACF
:20390C00201B5B33326D25731B5B306D00C046C0F8D90000B4D90000400500003C050000DE
:20392C0044050000D0D9000084050000C8D90000F30F0020F8B5A0F2013517460E46022DE8
:20394C0040F214818A4A8B498B4B2D1F0F2D04D9143D4AD0AD1E1CD011E0DFE815F0C3000F
:20396C00BC00F400E400B300AB000701A2009A00100010009200880079006F006300282830
:20398C0080F2F480022E40F0F180398806F082FCF8BD012E40F0EA8015462879012800F09C
:2039AC00E58051793878507181B9002800F0DE809078012800F0A980042800F0A6800628F1
:2039CC0000F0A380052800F0A080F8BD3878002840F0CC809078032800F0A280072800F01E
:2039EC009F80052800F09C80F8BD012E40F0BE803878012840F0BA80154605F1F00007F096
:203A0C0087FE002840F0B2802C46002004F13E0104F012FB002840F0A98004F1CC0008F08A
:203A2C0027F8F8BD022E40F0A18038880A28C0F29D80B0F5486F00F3998015E0022E40F0A7
:203A4C0095803888B0F5FA7F80F290800880F8BD022E40F08B8038880628C0F28780B0F5F1
:203A6C00486F00F383801946891C0D4638E0022E7CD13888062879DBB0F5486F76DC194652
:203A8C00F3E7012E72D1387806286FDA891F0D460EE0012E6AD13878042867DA15460B359C
:203AAC0006E0012E62D1387808285FDA15460A352870F8BD012E59D13878042856DA1546F2
:203ACC00093506E0012E51D1387804284EDC154608352946DBE7022E48D1388815461235EB
:203AEC002946B3E7012E41D11546687901283DD011793878107161B9002837D090780128C9
:203B0C0003D0042818BF052830D1012007F0E4FCF8BD387850BB9078022818BF052825D101
:203B2C0007F0C6FDF8BD154605F1870400211F22204604F001FB39463246204603F0BCFD6D
:203B4C000020EE710EE0154605F1680400211F22204604F0F1FA39463246204603F0ACFD8F
:203B6C000120AE713146224605F02AFCF8BDC046780C0020BC0C0020B80C00202DE9F04F7F
:203B8C00804609AF0846ADF1340D0A9397F808B00992B98808903F880B9105F08BF90646EE
:203BAC007C497B48DFF8F491DFF8F4A1814ADFF808C200240FF2681E002E0588C888898876
:203BCC00079538D0761E1FD073480168D5B148460068014216D050460068014204D171481A
:203BEC000068008801420DD071484FF4EA7745A6056800976D4B01966B4F02941A8838687C
:203C0C003BA3A8470A206FE005461046079E0168002E37D048460068014233D05046006834
:203C2C00014204D15F480068008801422AD040F2CF134AA214E00D461046079E01680EB320
:203C4C004846006801421DD050460068014204D1544800680088014214D04FF4E27341A2EE
:203C6C00604606680093CDF804E00292CDF80C800497CDF814B04D4B06941A884A4B1868F6
:203C8C001BA3B047BD420EDB0B98E91B8142D4BF8AB2021C0A9802800898C0683918099846
:203CAC0003F00AFD1FE03C48079F0168D7B148460068014216D050460068014204D139482E
:203CCC000068008801420DD039484FF4ED7727A605680097354B0196334F02941A8838685E
:203CEC0003A3A847072420460DB0BDE8F08FC046627574746F6E5F736572766963652E632E
:203D0C0000C046C041747472696275746520776173206E6F7420666F756E642E00C046C011
:203D2C0052656164417474724342203A20257320636F6E6E48616E646C653A202564206F3D
:203D4C0066667365743A202564206D6574686F643A2030782530327800C046C042555454B5
:203D6C004F4E3100425554544F4E3000416E20696E76616C6964206F666673657420776108
:203D8C0073207265717565737465642E00C046C0F8D9000008140020B0D9000040050000E3
:203DAC003C05000044050000D0D9000084050000C8D90000B4D90000CCD900002DE9F04F13
:203DCC00804609AF0846ADF1340D0A9397F808B00992B98808903F880B9105F097F80646A1
:203DEC007A498448DFF8EC91DFF8ECA17F4ADFF800C200240FF2641E002E058888884988CB
:203E0C00079538D0761E1FD071480168D5B148460068014216D050460068014204D16F48DB
:203E2C000068008801420DD06F484FF4E57744A6056800976B4B0196694F02941A88386845
:203E4C003BA3A8470A206FE005461046079E0168002E37D048460068014233D050460068F2
:203E6C00014204D15D480068008801422AD040F2C51349A214E00D461046079E01680EB3EB
:203E8C004846006801421DD050460068014204D1524800680088014214D04FF4DD7340A2B4
:203EAC00604606680093CDF804E00292CDF80C800497CDF814B04B4B06941A88484B1868B8
:203ECC001BA3B047BD420EDB0B98E91B8142D4BF8AB2021C0A9802800898C0683918099804
:203EEC0003F0EAFB1FE03A48079F0168D7B148460068014216D050460068014204D1374812
:203F0C000068008801420DD037484FF4E87726A605680097334B0196314F02941A88386827
:203F2C0003A3A847072420460DB0BDE8F08FC046646174615F736572766963652E6300C02D
:203F4C0041747472696275746520776173206E6F7420666F756E642E00C046C05265616419
:203F6C00417474724342203A20257320636F6E6E48616E646C653A202564206F66667365D3
:203F8C00743A202564206D6574686F643A2030782530327800C046C053747265616D00C02A
:203FAC00537472696E6700C0416E20696E76616C6964206F666673657420776173207265FF
:203FCC00717565737465642E00C046C0C8120020B0D90000400500003C0500004405000094
:203FEC00D0D9000084050000C8D90000B4D90000CCD90000F8D900002DE9F04F804609AF0C
:20400C000846ADF1340D0A9397F808B00992B98808903F880B9104F0D1FF06467B497A4816
:20402C00DFF8F091DFF8F0A1804ADFF804C200240FF2641E002E058888884988079538D066
:20404C00761E1FD072480168D5B148460068014216D050460068014204D17048006800884B
:20406C0001420DD0704840F2A11744A6056800976C4B01966A4F02941A8838683BA3A847D8
:20408C000A206FE005461046079E0168002E37D048460068014233D050460068014204D165
:2040AC005E480068008801422AD04FF4CE7349A214E00D461046079E01680EB34846006850
:2040CC0001421DD050460068014204D1534800680088014214D040F2911340A26046066810
:2040EC000093CDF804E00292CDF80C800497CDF814B04C4B06941A88494B18681BA3B047D3
:20410C00BD420EDB0B98E91B8142D4BF8AB2021C0A9802800898C0683918099803F0CCFABD
:20412C001FE03B48079F0168D7B148460068014216D050460068014204D1384800680088B5
:20414C0001420DD0384840F2A71726A605680097344B0196324F02941A88386803A3A847EF
:20416C00072420460DB0BDE8F08FC0466C65645F736572766963652E6300C0464174747204
:20418C00696275746520776173206E6F7420666F756E642E00C046C05265616441747472D7
:2041AC004342203A20257320636F6E6E48616E646C653A202564206F66667365743A202539
:2041CC0064206D6574686F643A2030782530327800C046C04C45443100C046C04C45443036
:2041EC0000C046C0416E20696E76616C6964206F6666736574207761732072657175657370
:20420C007465642E00C046C0F8D900008C140020B0D90000400500003C0500004405000078
:20422C00D0D9000084050000C8D90000B4D90000CCD900002DE9F04F0128ADF1140D40F000
:20424C00F280DFF81492D9F8DC00012840F0E9800220C9F8DC0007F0C1FC0290012005F0D9
:20426C00C5FB20B101210646C9F8DC10D5E007F0B1FC03906E484FF00008C0F80080012044
:20428C0006F0C6FF012818BFCDF8008004D1404604F09AFF0120009066486E4CC0F80080D9
:2042AC001934D4F8FF0F112007F028FB00280CBF46460126102007F021FB08B146F00206A0
:2042CC000F2007F01BFB08B146F004060B2007F015FB30B1584800685849006B024608889E
:2042EC0090470A2007F00AFB0028404618BF01204FF0805B0BF5DC7528B128685049006B37
:20430C000246088890474F480127076028688069014646F0200088474B48076007F0E8FA04
:20432C0000F001010191400815D2484807F069FA8246BAF1040FF8D0BAF1010F06D1DBF821
:20434C00D801406802464148032190474049086820F003000860404600F08EF92868D4F837
:20436C00FF1F806B8047019801280ED0BAF1010F06D1DBF8D80140680246344839469047C1
:20438C003349086840F0030008602A480760286840690146304688470B2007F0AFFA28B148
:2043AC0028682649C06A0246088890470A2007F0A5FA28B128682249C06A024608889047AC
:2043CC00204807600322C9F8DC201F4BC3F800802868406B0146304688470128F8D104209E
:2043EC0005F004FB124807601A48D4F8FF1F01688909FCD30098012802D1384604F0E4FEFE
:20440C0007F06AFA082005F0F1FA06460398C9F8DC7007F0DBFB04F095FC029807F0D2FB89
:20442C0002E0042600E00126304605B0BDE8F08F0C40094000022243B8010010FAD400007B
:20444C00F6D400002820086080010443004003402422084014100940B81100202DE9F04F52
:20446C0005460F467948DFF8F0B1DFF8F0A1DFF8F091DFF8F0817D49ADF1240D0FF2681C35
:20448C002E1C089202887B48079238D0761E1FD06F480168171C00F087806E480068014210
:2044AC0000F0828058460068014204D1504600680088014278D06C484FF48C7740A6046883
:2044CC000097434601964F4602951A88386862E00968041D002AA4F1030635D05D480068FD
:2044EC00014231D058460068014204D1504600680088014228D04FF48A7342A213E0096805
:20450C00841C064602B35348006801421CD058460068014204D1504600680088014213D0F2
:20452C004FF4867339A2524805680093CDF804C002920397002304930593069343461A88F1
:20454C004B4618681AA3A847022F00DA37BB414D3F4C07982A682168061C25D0114223D065
:20456C0058460068014204D150460068008801421AD03F484FF492760468009625A501952A
:20458C0002970123039300220493464605924D4606923288286806A3A04705E008993046DF
:2045AC003A4603F089F8278009B0BDE8F08FC0466C65645F736572766963652E6300C04655
:2045CC00536574506172616D657465723A20506172616D6574657220232564206E6F7420AA
:2045EC0076616C69642E00C0536574506172616D65746572203A202573206C656E3A2025F4
:20460C006400C0464C45443100C046C04C45443000C046C04C656E677468206F75747369D7
:20462C00646520626F756E64733A204C656E3A202564204D696E4C656E3A202564204D618A
:20464C00784C656E3A2025642E00C046F8D90000B0D90000400500003C0500004405000077
:20466C00D0D9000084050000C8D90000B4D90000CCD900008C1400202DE9F84FDFF8E8B19C
:20468C000746ABF13500DFF8D4910068800880F0D68006F049FB064677480830D0F8008039
:2046AC0000254FEA28725FEA985002F101020AD2C6F13E0016F10A0F4FEAE000D8BF082006
:2046CC008242B8BF021C624BD3F87C01C0F3046007F090F804461868C0F3044007F08AF8B0
:2046EC0012198246162A05DA12F10A0FB8BF6FF0090200E01522574B574802F01F0141F400
:20470C00F8511980006810F0030F18BF0125C00828BF45F002050FB145F00405494691F932
:20472C000700301A052804DA8879A84208BF888865D0DFF82CE10F2EA6F10F0C25DB0CEB50
:20474C000610A0F1F00C4FEA2C27072F88BF07273C46062C88BF06245EF82400042303EBBF
:20476C0084037446E3581B1A03F0FF04E80824BFC3F307200444A80824BFC3F307400444B6
:20478C00680828BF04EB136401E0002427465EF827E0E8080EF0FF0324BFCEF3072003447F
:2047AC00A80824BFCEF307400344680828BF03EB1E63A4B2ACEB0727BAEB020004FB07F489
:2047CC0004F1800403EB1423D8BF0120342208F0FF0742437A43B2FBF3F04FF6FF728242D7
:2047EC0038BF101C802E80B2888005DA16F1800FB8BF6FF07F0600E07F26CE718D71194AAD
:20480C0012681F280A604FF0000208D340F2FF11814206D24008521C8142FBD301E01F2001
:20482C008880124F0F38000942EAC00247EA0200CBF8FB0F0026CBF8FF6FBDE8F88F0D4FE6
:20484C000B4E494608203760891D0870BDE8F88F3C1100506E620840242208409026002042
:20486C009C130050082009403500094000E7A48030100940FDFDA400AC3F00502DE9F0418A
:20488C001C4615468C4208BF854282BF00230022E5E0002C08BF002D0AD100290EBF00288F
:2048AC006FF000006FF0000100F0E1F8BDE8F0815FF000085FF0000E002C08BF8D429CBF7D
:2048CC002C1C0025070C47EA01470E0CB44208BFBD429EBF5FEA044444EA15445FEA0545F5
:2048EC00070A47EA01670E0AB44208BFBD429EBF5FEA042444EA15645FEA0525470847EAC6
:20490C00C1774E08B44208BFBD4200F29380870847EA81778E08B44208BFBD427CD8C7080F
:20492C0047EA4177CE08B44208BFBD4266D8070947EA01770E09B44208BFBD4250D84709AE
:20494C0047EAC1674E09B44208BFBD423AD8870947EA81678E09B44208BFBD4224D8C70905
:20496C0047EA4167CE09B44208BFBD420DD8E60146EA5566EF01B14208BFB84201D3C01BB5
:20498C00B14158EB08085EEB0E0EA60146EA95664FEA8517B14208BFB84201D3C01BB14165
:2049AC0058EB08084EEB0E0E660146EAD5666F01B14208BFB84201D3C01BB14158EB080859
:2049CC004EEB0E0E260146EA15762F01B14208BFB84201D3C01BB14158EB08085EEB0E0E57
:2049EC00E60046EA5576EF00B14208BFB84201D3C01BB14158EB08084EEB0E0EA60046EA08
:204A0C009576AF00B14208BFB84201D3C01BB14158EB08084EEB0E0E660046EAD5766F0083
:204A2C00B14208BFB84201D3C01BB14158EB08085EEB0E0EA14208BFA84201D3401BA141B8
:204A4C0058EB08085EEB0E0EA34208BFAA423EBF2D0A45EA0465240A89D3734642461E46FF
:204A6C0017460B46024631463846BDE8F08170472DE9F04F0D468246DFF89881684CDFF887
:204A8C00A491287809AF9B46ADF1240D0228079207D140466B680688188842F6021181429D
:204AAC0024D0284604F006FA5B48474601683888D0B15A480068014216D02068014204D1E7
:204ACC0048460068008801420ED05948046840F2132733A600250097544B0196524F0295AF
:204AEC001A88386829A3A0470A204CE051480068002E80462BD04948006818EA000F26D06F
:204B0C00206818EA000F05D148460068008818EA000F1CD03879FE280CBF28A62EA62846ED
:204B2C0004F0C8F9444940F201230C6800932DA201920290CDF80CA0002104963B4B05918E
:204B4C00394E06911A883068414610A3A04738880090079A5B462946504603F00FFF0646EC
:204B6C003648076876B96FB1786858B1284604F0A1F9CDF800B07C68079B02464FF48951A8
:204B8C005046A047304609B0BDE8F08F627574746F6E5F736572766963652E6300C046C0F6
:204BAC0041747472696275746520776173206E6F7420666F756E642E00C046C02D20726505
:204BCC0073746F72696E6720626F6E64656420737461746500C046C02D204F5441207772F6
:204BEC00697465005772697465417474724342202843434344293A20706172616D3A2025D4
:204C0C006420636F6E6E48616E646C653A20256420257300F8D90000B0D9000040050000D0
:204C2C003C05000044050000D0D9000084050000C8D90000B4D90000CCD900001014002095
:204C4C002DE9F843814606F041FE002100B901216B4E30680028FCD06C4D01242D1DEF6A39
:204C6C00346009B106F038FEDFF89881C7F3072008F1BC01086006F029FE002100B9214661
:204C8C0030680028FCD02F68346009B106F024FEC7F38440C8F8C00006F018FE014600200E
:204CAC0001B92046014630680028FCD0ED69346009B106F011FEC5F38120C8F8D000B9F5B5
:204CCC00C061C8F8B81000F0968098F8D80068B9C8F8D410D8F8C000C8F8C800D8F8BC70D8
:204CEC00C8F8C470D8F8D060C8F8CC60D8F8D410D8F8BC60002954BF02206FF001004546DF
:204D0C0005F1C8031A6801EB41014018411000EB917002EBA0021A60D5F8C810C5F8C460F2
:204D2C0000291CDD1E293DDDD5F8CC0030B93429B4BF15391E21C5F8C81025E02A29BABF9F
:204D4C00D5F8C8000B381E20C5F8C800D5F8C4003F28B4BF401C3F20C5F8C4001FE0D5F839
:204D6C00CC00032812D011F10B0FC6BFD5F8C8000B30201CC5F8C800D5F8C4000028CCBFD8
:204D8C00401E0020C5F8C400032009E011F1150FC6BFD5F8C8001530201CC5F8C800002096
:204DAC00C5F8CC00B5F8C400174E30214FF47F4208230090304604F065FD009404214FF4B0
:204DCC0000321123304604F05DFDB5F8C80004214FF4F80212230090304604F053FDB5F89A
:204DEC00CC0020214FF440620A230090304604F049FDBDE8F883002088F8D800BDE8F88390
:204E0C0000800C40B811002000A00C4000A00C402DE9FC416F4C204606F028FE15460E46BA
:204E2C00009006F0EBFE05F001078046B6F1FF3F0DD1606820B9B4F91200401C06B202E01B
:204E4C006068B0F91C6064490020C91C0870304605F0D2FE0326002800F0A4806168814203
:204E6C0070D0009FDFF848C1B84231D03FB100990A68904209D0096800290091F7D1832E22
:204E8C0044D0404606F0B6FE40E0604606F054F900990868AA0803D202680B4601461A60AD
:204EAC0000220A60009078B10C340146C87F40F00400C877684606F0D3FA0146204605F04D
:204ECC00EDFA00980028F0D1404606F093FE1CE0604606F031F9A8083ABF206800680020D6
:204EEC002060404606F086FE0C340099C87F40F00400C877684606F0B3FA0146204605F0A0
:204F0C00CDFA009808B1A808EFD2832629482C4A007890B928480078012846D02748FBF723
:204F2C00E3F80221104606F017FB2648007801283BD02548FBF7D8F837E01046022106F03A
:204F4C000BFB32E0A90803D32168009100262660C27F0121B9401143C17706F03BFE06467D
:204F6C00002F14BF19481A4805F0F2FE404606F041FEA80811D3009878B10C340146C87F9D
:204F8C0040F00400C877684606F06AFA0146204605F084FA00980028F0D1304606F016FE69
:204FAC00832602E0404606F025FE3046BDE8FC8170250020C0260020BF26002049260000F4
:204FCC00D8240020C1260020856C0000010002040100010458260020D02500202DE9F04F9C
:204FEC00ADF1840D209000F06DFF04F027FC0024012804D106F004FA022808BF0124594985
:20500C000868C0F38150012805D151F80C1C0120090E884004435448007805F04BFFDFF8AF
:20502C004C81DFF84CA1C8F8000030B15246FF2107467F1E02F8011BFBD12099096800255F
:20504C0001F0FF02FE2A1BD0DDF880C052462B46012701F0FF06FF2E0BD0B04203D907FA2C
:20506C0006F6344201D0022079E001F0FF01354353545CF8041F5B1C01F0FF06FE2EEAD18B
:20508C00092001F0CFFE3B49209824220823086001A8002106F092FD4FF0010901AA3E483F
:2050AC008DF81C90494606F085FDD8F800303BB33A4E00274FF0040BBA4609FA07F0044281
:2050CC0018D1054204BF07F0FF0141F4C04104D027482099C05D51F82010274802F0EEF8CB
:2050EC00F8B24FF0FF3106F0A1F8D8F80030C6F800A001E0C6F800B07F1C361D9F42DCD3D1
:20510C000AA800213022082306F050FD1B4D1D4A2878002410210AAB12901948009406F0EA
:20512C0041FD16A828220823214606F037FD686816AA16491C9014481D94234606F02AFD33
:20514C00134A52F80D0C494620F4F85040F4005042F80D0C0F4BC2F8FF1F2046196021B0DF
:20516C00BDE8F08FB43F0050C62600207C21002094250020B4260020007FC76778D9000022
:20518C00D425002055B20000A4240020219900000D30094008000940F025002028240020C9
:2051AC002DE9F84F9A4693460D46044606F026FDDFF85C810AAFB8F91220B8F91010009066
:2051CC0040F6F870891A0840082880F29280B8F91000401C6FF31F30A8F81000B8F91090B7
:2051EC0005F056FF064604F1700005F0A5FFB56086F81EB0C6F804A0F460A6F81C9097E82F
:20520C000C0051A003C800251040F577D8F8002006F11007194087E80300002A5CD1404633
:20522C00314605F03BF900285BD0A4F894904448F17F0778DFF8DCA041F08001F17784F84B
:20524C00965067B151460F784FB1344A3449324B0570012015700A781870521C0A70009809
:20526C0006F0C8FCD8F8040000284ED15146087800282DD12B480078012846D006F0BEFC36
:20528C00054629480078F8B9B06803F0C7FF284B2C4A26491B681268086038B9284606F03A
:2052AC00A9FC2448042106F057F92EE0D0680968214C091AB1FBF3F1204606F097FC20463A
:2052CC0006F090FC28461EE01C4901200870F9E7192006F02DFA18E04046314605F0DEF8E0
:2052EC0050B9B8F9100000F6FF706FF31F30A8F810006FF0010905E0A4F89490F07F40F065
:20530C008000F077009806F075FC4846BDE8F88F58260020C1260020C5260020BE2600202D
:20532C00C7260020C0260020BF2600209C260020A4D90000D824002070250020C226002011
:20534C00C4260020AC260020F1EFFF9F200000002DE9F04F694CA068ADF1440D002800F08E
:20536C009D80DFF890914FF00A0B4FF0010A4FF000088FE006F042FC21785F4BCA0002EB8A
:20538C0041129A18B2E8E01007ABA3E8E010E0CAE0C364CA4F1C07F01F0183E8640004F184
:2053AC000C05627821708A4208BF84F802A006F021FCBDF82000002808BF2E1C09D0034671
:2053CC00A62138A2284605F0B9FF284606F030F92E18079FB8B205F07BFE42A20CCA01F009
:2053EC0019F842A20CCA01F015F804F023FBA91B00902EA23B0CA631304605F09FFF28460D
:20540C0006F016F92A18A0682946521B06F0C4FABDF82200E0B106F0B9FBB9F8007037B97E
:20542C0009990A9F0346009124A2019720E00A9900910B9F01970C9E02960D9B03930E9A3F
:20544C0004920F9F0597109E0696099B02460FE00B9800900C9F01970D9E02960E9B039343
:20546C000F9A0492CDF81480CDF818800A9B099A2846A62105F062FF284606F0D9F82A18E1
:20548C000D2002F8010B02F801BBA0682946521B06F082FAA07800283FF46CAF11B0BDE8CD
:2054AC00F08FC04623253036752000C05B2025642E25303375205D2000C046C07B657674FC
:2054CC003A20666D743D25702C20617267733D5B307825782C2030782578202E2E2E5D7D62
:2054EC0000C046C0000000000000F03E0000000000408F408A050000C00200200802002002
:20550C002DE9DF4F6548DFF88CC1DFF874B1DFF874A1DFF87491DFF87481DFF874E107881F
:20552C0056480E1C32A313D10168002F5DD058460068014259D050460068014204D1484603
:20554C0000680088014250D040F201572CA62DE0012E17D0022E48D1002A46D10168002F4B
:20556C0043D05846006801423FD050460068014204D1484600680088014236D040F212573C
:20558C0023A613E0A2B90168002F2ED05846006801422AD050460068014204D14846006803
:2055AC000088014221D040F2075725A6002212E039480168CFB158460068014215D0504686
:2055CC000068014204D148460068008801420CD040F20B5722A66046046800970196774649
:2055EC00464602923A883068A0470090BDE8DF8F70726F6A6563745F7A65726F2E6300C034
:20560C0050616972696E6720737461727465640052652D65737461626C69736865642070A1
:20562C00616972696E672066726F6D2073746F72656420626F6E6420696E666F2E00C0469C
:20564C0050616972696E6720636F6D706C65746564207375636365737366756C6C792E0024
:20566C0050616972696E67206661696C65642E204572726F723A202530327800B4D9000091
:20568C00400500003C05000044050000D0D9000084050000C8D90000B0D90000F8D9000002
:2056AC002DE9F0438046D8F80460D8F808700C46ADF1340D06F0A2FA3178012903D106F0F3
:2056CC0099FA0020A3E04FF0010986F8009006F091FA207870706078B07060687060A068A0
:2056EC00B060E068F06020693061207D3075607D7075A07DB075A069B061207F3077607F57
:20570C0000257077A07F35623563102186F83C10B0772C4674627463B462B46386F82C40CB
:20572C0086F82D4086F83D40786801F07BFB404601F0E0FB404602F0EFFA78B93548006867
:20574C00C068014638688847786801F001FB06F055FA347006F04EFAA04657E001A821463E
:20576C003022082306F022FACDF818803A7B09920095294AB96806F1680001AB06F012FAAB
:20578C0001A828220823214606F008FA396907912249CDF8148006F1840001AA234606F0FD
:2057AC00F9F901A824220823214606F007FAB0788DF81C9038B906F1B800214601AA06F072
:2057CC00F9F917483061707838B906F1D400214601AA06F0EFF91348F06001A82146242246
:2057EC00082306F013FA0694ADF8144006F1F0000D49CDF81C800A2201AB06F003FA0B4A1E
:20580C0006F154000421434605F0CAFA40460DB0BDE8F083D0010010F1680000F1950000AF
:20582C00EDB90000E5B90000517A00004DB700002DE9FC415E4C574D574EDFF860815A4FA2
:20584C0094F8E410481E0B2861D8DFE800F07B2C43062343062343067664042907D001226A
:20586C000A2945F8212C14BF0220032004E02021012045F8211C024684F8E200002045F884
:20588C00390C0827C5F8FF7FC5F8F37F45F8392CBDE8FC81052914BF09200620002584F869
:2058AC00E400356070E094F8E1700120383D002FC5F81B0004BF0620002102D00021F1604B
:2058CC00032084F8E400032045F8010C31603068800859D294F8E400012503280DD0002131
:2058EC00404660220523009103F0CCFF94F8E400062814BF0A200720D1E7022000900021D0
:20590C0060220523404603F0BDFF0420C7E706F039F9BDE8FC812249002622480E600125F1
:20592C0005600E2001F014FA022004F0C5FF84F8E45084F8E360BDE8FC81002038600C2575
:20594C0078601FE01948006800680146202088472C3D41F61D560F2000214FF4C0720723DB
:20596C0045F8010C4046C5F803600225009503F089FF404600214FF4C072072304F08CF935
:20598C000120386084F8E45004F1780006F02AF9BDE8FC8139400C4038600C4000A00C4055
:2059AC002C500C4004800C4034600C40A0010010B81100202DE9F04F5D4C27690346ADF154
:2059CC001C0D002F68D05148DFF848A1DFF84891DFF84881DFF848B1DFF848C1DFF848E1D2
:2059EC0006882FA23BBB4A490968002E4ED05046006801424AD048460068014204D1404607
:205A0C0000680088014241D0704640F2AB460568009627A3019338790290A07803900026E8
:205A2C000496634605965F4606961E88386813463246A8472AE03D48016816B35046006876
:205A4C0001421ED048460068014204D1404600680088014215D070464FF496660568009665
:205A6C001EA6019638790290039300260496674605965B46069618683E8813463246A8479B
:205A8C002769397907F1080005F066FC206905F087FC00202061A07007B0BDE8F08FC046CE
:205AAC0070726F6A6563745F7A65726F2E6300C053656E74206D6573736167652077697460
:205ACC0068206F70636F6465203078253032782E20417474656D7074202564004761766598
:205AEC00207570206D6573736167652077697468206F70636F6465203078253032782E2005
:205B0C005374617475733A20256400C0F8D90000B4D90000400500003C0500004405000025
:205B2C00D0D9000084050000CCD90000B0D90000C0070020F8B5414C201D0368B3F1FF3F4E
:205B4C0008BF002303F07AFE002876D13C4E20683468070F04F0FF04802C28BF002403F010
:205B6C006DFE4FF0FF3578B1401E07D0401E012802D9801E13D014E08FB112E0381C5CD054
:205B8C00801E0ED114340BE03846401E55D0801E53D0001F51D0401E03D1163400E00A34AD
:205BAC0065B2162D49DB27482749002501270560264E0F60264C376020680028FCD1274AF0
:205BCC00161D2449244F306820F0030001433868C0080CD2106810F0030F0AD041F00300D9
:205BEC003060106800F003000328FAD101E041F001011B483160006820B11A48006818463F
:205C0C00FCF7F8F8184819490560194F0A686FF35B4247EA0200086016490868C0F3013047
:205C2C00012806D10A681448104040F400320A60086020680028FCD1F8BDFEE71813005070
:205C4C00A0100050840460425C600C40082204430C00684204000020B03F005000400340F9
:205C6C0080012843000120438C210840482003400000390104000940FFFFFCFC70B5ADF1E8
:205C8C00380D00F01FF9324908682822082340F00200086001A8002105F080FF2D4EB078D0
:205CAC002E4907902C48002301AA05F073FF00213022082301A805F079FF00251921307866
:205CCC00284AADF81C5001AB09902548009505F069FF2822082301A8294605F05FFFF07849
:205CEC0022490790204801AA2B4605F053FF3022082301A8294605F059FF01241A217078A1
:205D0C001C4AADF81C4001AB09901948009505F049FF194819492A46134605F073FF184845
:205D2C00FAF7E2F91849194E0C70164835704FF6FF728283C577164B1D70164C2570164909
:205D4C000D70174E3560154A15700EB070BDC0460020094096D90000D82400202DB5000015
:205D6C000C26002009AF00000C250020DD740000282600207D9200007025002055A900003B
:205D8C00856C0000B4250020BE260020C3260020C0260020BF260020C4260020C5260020E0
:205DAC00A02600202DE9F04F0C464549CA7AADF12C0D84460592487B09900D7900958A7AC5
:205DCC00488B4B8A0E7B91F805A091F802800492B1F846E008904A7A088B0392CD78079088
:205DEC000A7AC88A02920F6A0690CA79888A01928A79E146A9F54079B9F11D0F10D8DFE830
:205E0C0009F05B5553514F4D4B494643413F3C3A380F34312E2B2923201E1C0F1918171662
:205E2C00BCF1280F49DA604603F0D6FF21E0099EB246D046CDF814801DE0089807900798FF
:205E4C000690DDF818E005E03831086820608888A08032E070460AE0B1F8440009E0B1F834
:205E6C00420004E0B1F8400001E091F83E00034612E0208021E0059804900498039001E042
:205E8C003231E2E7039802900298009006E0019A87310DE068310BE01846EAE7009D0BE012
:205EAC002C31D2E7276008E0583100E048311022204601F001FC00E025700BB0BDE8F08F95
:205ECC00780C00202DE9F041444C94F8E700ADF1280D00286FD1394F387B012500212422C5
:205EEC0084F8E7507E6884F8E6000823C4F80C6101A805F08BFE002604F10C00069601ABB1
:205F0C00ADF814602E490796324605F07BFE2D4904F1300001AB324605F074FE2A4904F1D4
:205F2C00540001AB324605F06DFEB868014628468847DFF89C8025487B7B0078D8F8041027
:205F4C00C1F381571BB1032F03D184F8E150032F16D0022F14D0012F26D103201D4C0090BA
:205F6C0031464FF040521C23204603F08BFC009531464FF400720923204603F083FC13E0F6
:205F8C00022004F0B1FC032F0CBF4FF47A7142F21071114800685434B1FBF0F1204605F021
:205FAC0025FE204605F01EFED8F80000C00802D2304604F099FC0AB0BDE8F081FCD800002C
:205FCC00B7810000097C0000C97F0000C6260020B03F005000A00C40A4D90000B811002013
:205FEC002DE9F0430746880FADF1140D75D303F01FFB404D00261C352E60394845F81C0CDC
:20600C00012000F088F93748FAF76EF8BC68B14640F60A01344A6680537B11809046568041
:20602C00107BC2F8049003F0F00300F0F000107343F00103537300E01C46636813B11888C4
:20604C008142F9D1C4F80480607B00F0F0006073264805F00BFD80680088C91F81421DD066
:20606C00491C81421AD03B8CC3B197F82C107E8497F82D00C7F8249001F0F00100F0F00009
:20608C0087F82C1040F0010087F82D0007F12003C8F80430507B00F0F0005073B868694610
:2060AC0004F0D6FF684605F02BFBB86801F049F828680028FCD02E60012005F0A9F80128FE
:2060CC0008D0607B00F0F00040F0010060730848FAF70AF8B86845F81C0C05B0BDE8F08388
:2060EC0001010E04492600006C26002058260020D1900000001004402DE9F04105F098F93F
:20610C003F4D3E4EDFF8FC800446A00820D330464168E9B1002242608B690A690F69224065
:20612C001A4342F0020205F108038A611A68BA4301F110071A6097E80C002A680C301B1C42
:20614C009A432A6004F0AAF94046022105F004FA7068A10815D200F1100191E80C00002783
:20616C0002EA04013B40002B08BF002909D081691440B0600C4384614FF48041404605F0B2
:20618C00EBF97068002837D1304605F06FFC071C32D01E48F9680068884228D1B86803F007
:2061AC003DF819490860E8B905F1080138690A68104308602B6807F1100494E80300081C24
:2061CC001843286000222A61B86845F80C0C05F1100000680028FAD0304605F041F97760D2
:2061EC00BDE8F081086802F05FFCBDE8F08140464FF4805105F0B0F9BDE8F08158260020BE
:20620C000C100440D82400209C260020AC2600202DE9F0430746ADF11C0D05F0AFFC04F031
:20622C0003FB4FF000090646CDF80C9005F07EFB30F0010002D00398B04202D16FF004003B
:20624C0066E078684C4658B1B0F1FF3F05D004A904F0D2FA30B1804659E04FF0FF3000E022
:20626C002046049005F086FC049D4FF001082D1802E00A463BE004937068049905F076FCB3
:20628C0000282DD0684602F075FFD8B99DF8040005A904F033F888B9BB68BDF814009DF800
:2062AC000610029A984748B1BDF814009DF80650B881029BBD73C8463B6111E0029903A8AD
:2062CC0004F042FC0498641CB0F1FF3FD4D00028D2D005F04FFC2B1A02D004989842CAD2AE
:2062EC00039F04F0F7FF06F1080547B13A4652F80C1C0029BDD1296842F80C1C2F6005F0EA
:20630C0043F924B1706805F02DFC641EFAD1404607B0BDE8F08370472DE9F04707467D6892
:20632C00D7F8089090460C4605F068FCAE6A8246002E64D105F1F00004F0FEFE2C6200249E
:20634C00EC7750466C6205F055FC05F057FC2F4E3378824623B9022004F0C6FA0120307079
:20636C00504605F047FC2A4A1068414640F480701060384603F022FFA862C0B93846414622
:20638C0003F0C8F9A878D0B9A96805F1B80005F0EDFBE8B9AC621020E8774946284602F0CB
:2063AC009DF805F02BFC8246307840B323E0D9F80010886B40F020008863A87810B1204664
:2063CC00BDE8F087A96805F1B80005F0CFFB10B1686ABDE8F0873846414603F09BF91020AC
:2063EC00AC624946E877284602F078F805F006FC8246307818B1022004F05EFA34705046ED
:20640C0005F0F8FB4FF0FF30BDE8F087CA260020301000402DE9FC4191EA03084CBF4FF04B
:20642C0000484FF000084FEAC32545EA52554FEAC2264FEA43077F0D11BF45F0004500212F
:20644C000020BDE8FC815FF4E06E1EF1FF0E774555D04FEAC12343EA50534FEAC0224FEA0F
:20646C004104640D11BF43F0004300210020BDE8FC81744543D0E419A3FB0501A3FB06E7B9
:20648C00A2FB06631EEB030E57F1000751F10001A2FB05631EEB060E57F1000751F100018A
:2064AC00FF1851F10001C01951F100014CBF4FF4806E4FF4007E10EB0E0051F1000148BF0A
:2064CC00641C01D4400049415FF44077FF37E41BDEBF00210020BDE8FC8117F58067BC4261
:2064EC000DD24FEAD02040EA41504FEA41014FEA113141EA045141EA0801BDE8FC810020E1
:20650C00FF21C900C91D090551EA0801BDE8FC812DE9F04104466668A7680D46ADF1380D88
:20652C0005F06CFB96F8DC10012903D105F062FB00205EE04FF0010886F8DC8005F05AFB5F
:20654C00E968204602F07EFA0028F1D12878307068687060287A002130220823F06001A80B
:20656C0005F024FB06943A7B099200250095224AB96806F1100001AB05F014FB01A8282220
:20658C000823294605F00AFB396907911B49059406F12C0001AA2B4605F0FCFA01A824220B
:2065AC000823294605F00AFB06F160008DF81C80414601AA05F0FEFA307838B906F17C0098
:2065CC00294601AA05F0F6FA0D4870603572C6F8BC50C6F8C050786800F024FC204603F003
:2065EC0009F9084A06F1C8000421234604F0D8FB20460EB0BDE8F081DD690000718F0000A7
:20660C00CDB900002DB700002DE9F04390460A68D8F800401678814600271D463846ADF168
:20662C00140D531C242E0B6053D112F8016F5B1C4C2E0B600ED1AA68E41C24F00304241DBA
:20664C0054F8040C494602F007FC2968EF600127091A2960462E1AD1E41C24F00304241DDF
:20666C0054F8040CE41C029024F00304241D54F8040C002749460390AA68ADF8047001A84B
:20668C0001F068F82968EF600127091A2960532E1FD1E41C24F00304241D54F8040CE86177
:2066AC00C8F80040288B0090A968EA69D9F800004346FCF723FBD9F80040002714B10119A5
:2066CC00C9F80010D8F800402968EF60091A01272960662E0AD12B8B23B9E41D24F00704F8
:2066EC00083403E0E41C24F00304241D1FB9E9690E700127EF60C8F8004005B0BDE8F08327
:20670C0034482DE9F0410E4601683348008806AF98461546ADF1200DF8B130480068014265
:20672C001BD02F480068014204D12E4800680088014212D02E484FF4A4630468009311A26E
:20674C000192029603950023049305930693274B1A88254B186807A3A047CDF800803888E5
